:100000000C9435000C945D000C945D000C945D0024
:100010000C945D000C945D000C945D000C945D00EC
:100020000C945D000C945D000C945D000C945D00DC
:100030000C945D000C945D000C945D000C945D00CC
:100040000C944B030C945D000C9455020C948702A5
:100050000C945D000C945D000C945D000C945D00AC
:100060000C945D000C945D00B70211241FBECFEF0D
:10007000D8E0DEBFCDBF14E0A0E0B1E0E8E7FEE0ED
:1000800002C005900D92A432B107D9F724E0A4E292
:10009000B4E001C01D92AA3CB207E1F710E0C5E34D
:1000A000D0E004C02197FE010E945104C433D1075F
:1000B000C9F70E943C030C943A070C94000026E018
:1000C00040E855E260E070E084E294E00C94F301D3
:1000D0007F928F929F92AF92BF92CF92DF92EF92D8
:1000E000FF920F931F93CF93DF93CDB7DEB7AE97F9
:1000F0000FB6F894DEBF0FBECDBFF82EE62E772EDA
:100100004A011AA219A2FE01B3968CE0DF011D92EA
:100110008A95E9F710E000E08BEFC82E83E0D82E37
:10012000CE0101965C01F6FE37C068EF73E0CE01A8
:1001300081960E945704C801880D991D9F938F9343
:100140007F92EF92DF92CF92BF92AF920E946204B1
:10015000B50184E294E00E9424030FB6F894DEBF58
:100160000FBECDBFFF0C0F5F1F4F06301105D9F634
:10017000AE960FB6F894DEBF0FBECDBFDF91CF9124
:100180001F910F91FF90EF90DF90CF90BF90AF90B5
:100190009F908F907F90089565E074E0CE018196E6
:1001A0000E945704DFCFEF92FF920F931F93CF93DC
:1001B000DF937B0123E0880F991F2A95E1F78C01DB
:1001C00000501040D0E0C0E0A701BE01F8018191CD
:1001D0008F010E9468002196C830D105A9F7DF91F0
:1001E000CF911F910F91FF90EF9008950F931F9360
:1001F000CF93DF938C01D0E0C0E0F80181918F01B3
:10020000BE01082E000C990B0E94D3002796C33222
:10021000D10599F7DF91CF911F910F91089588E053
:1002200094E00E94F60060E67AEE80E090E00C94A4
:10023000BA03FC01918D228D892F90E0805C9F4F45
:10024000821B91098F7399270895FC01918D828DEE
:10025000981731F0828DE80FF11D858D90E008959B
:100260008FEF9FEF0895FC01918D828D981761F0BB
:10027000A28DAE0FBF2FB11D5D968C91928D9F5FA9
:100280009F73928F90E008958FEF9FEF0895FC0188
:10029000538D448D252F30E0842F90E0821B930BEB
:1002A000541710F0CF960895019708958DEA92E0C3
:1002B000892B49F080E090E0892B29F00E94AD0263
:1002C00081110C9400000895FC01A48DA80FB92F92
:1002D000B11DA35ABF4F2C91848D90E001968F736E
:1002E0009927848FA689B7892C93A089B1898C918D
:1002F000837080648C93938D848D981306C00288DC
:10030000F389E02D80818F7D80830895CF93DF93E3
:10031000EC01888D8823B9F0AA89BB89E889F9891D
:100320008C9185FD03C0808186FD0DC00FB607FC52
:10033000F7CF8C9185FFF2CF808185FFEDCFCE0185
:100340000E946401E9CFDF91CF910895EF92FF926F
:100350000F931F93CF93DF93EC0181E0888F9B8DE8
:100360008C8D98131AC0E889F989808185FF15C0A2
:100370009FB7F894EE89FF896083E889F9898081C5
:100380008370806480839FBF81E090E0DF91CF9194
:100390001F910F91FF90EF900895F62E0B8D10E0B6
:1003A0000F5F1F4F0F731127E02E8C8D8E110CC025
:1003B0000FB607FCFACFE889F989808185FFF5CF70
:1003C000CE010E946401F1CFEB8DEC0FFD2FF11DEA
:1003D000E35AFF4FF0829FB7F8940B8FEA89FB89AD
:1003E00080818062CFCFCF92DF92EF92FF921F93F6
:1003F000CF93DF93EC016A017B01122FE889F98921
:1004000082E08083C11481EED806E104F104A1F0FA
:1004100060E079E08DE390E0A70196010E942F044F
:10042000215031094109510956954795379527952E
:10043000211580E1380798F0E889F989108260E891
:1004400074E88EE190E0A70196010E942F042150EC
:100450003109410951095695479537952795EC85FE
:10046000FD853083EE85FF852083188EEC89FD891C
:100470001083EA89FB89808180618083EA89FB8916
:10048000808188608083EA89FB898081806880839D
:10049000EA89FB8980818F7D8083DF91CF911F91D5
:1004A000FF90EF90DF90CF9008951F920F920FB6BC
:1004B0000F9211242F938F939F93EF93FF93E091CB
:1004C0003404F09135048081E0913A04F0913B04CA
:1004D00082FD1BC0908180913D048F5F8F732091BE
:1004E0003E04821741F0E0913D04F0E0EC5DFB4FEB
:1004F000958F80933D04FF91EF919F918F912F9164
:100500000F900FBE0F901F9018958081F4CF1F920F
:100510000F920FB60F9211242F933F934F935F9337
:100520006F937F938F939F93AF93BF93EF93FF93BB
:1005300084E294E00E946401FF91EF91BF91AF913A
:100540009F918F917F916F915F914F913F912F91EB
:100550000F900FBE0F901F90189584E294E00E94B8
:10056000190121E0892B09F420E0822F0895E4E2AB
:10057000F4E01382128288EE93E0A0E0B0E084837E
:100580009583A683B78382E194E09183808385EC91
:1005900090E09587848784EC90E09787868780EC4D
:1005A00090E0918B808B81EC90E0938B828B82EC3E
:1005B00090E0958B848B86EC90E0978B868B118EE8
:1005C000128E138E148E0895AF92BF92CF92DF9247
:1005D000EF92FF920F931F93CF93DF936C017B01F8
:1005E0008B01040F151FEB015E01AE18BF08C01789
:1005F000D10759F06991D601ED91FC910190F081FC
:10060000E02DC6010995892B79F7C501DF91CF91BE
:100610001F910F91FF90EF90DF90CF90BF90AF9020
:100620000895FB0101900020E9F73197AF01461BC7
:10063000570BDC01ED91FC910280F381E02D0994D0
:1006400060E274E00C9411030F931F93CF93DF9338
:100650008C01D0E0C0E06115710519F00E94110312
:10066000EC01C8010E9420038C0F9D1FDF91CF91E8
:100670001F910F91089508950E94F3030E943B0378
:100680000E945F00C6E5D1E00E940F012097E1F3D0
:100690000E945601F9CF1F920F920FB60F921124AC
:1006A0002F933F938F939F93AF93BF938091C204F7
:1006B0009091C304A091C404B091C5043091C104C9
:1006C00023E0230F2D3758F50196A11DB11D20936E
:1006D000C1048093C2049093C304A093C404B09354
:1006E000C5048091C6049091C704A091C804B0913C
:1006F000C9040196A11DB11D8093C6049093C7043F
:10070000A093C804B093C904BF91AF919F918F91FA
:100710003F912F910F900FBE0F901F90189526E8D4
:10072000230F0296A11DB11DD2CF3FB7F89480913F
:10073000C6049091C704A091C804B091C90426B51D
:10074000A89B05C02F3F19F00196A11DB11D3FBF09
:10075000BA2FA92F982F8827BC01CD01620F711DD8
:10076000811D911D42E0660F771F881F991F4A95D2
:10077000D1F708958F929F92AF92BF92CF92DF925E
:10078000EF92FF926B017C010E9495034B015C018B
:10079000C114D104E104F104E9F00E942E040E9486
:1007A0009503681979098A099B09683E7340810598
:1007B000910570F321E0C21AD108E108F10888EE32
:1007C000880E83E0981EA11CB11CC114D104E10461
:1007D000F10429F7FF90EF90DF90CF90BF90AF909A
:1007E0009F908F900895789484B5826084BD84B57D
:1007F000816084BD85B5826085BD85B5816085BD1C
:10080000EEE6F0E0808181608083E1E8F0E0108234
:10081000808182608083808181608083E0E8F0E075
:10082000808181608083E1EBF0E08081846080835F
:10083000E0EBF0E0808181608083EAE7F0E0808196
:1008400084608083808182608083808181608083F6
:100850008081806880831092C10008950895A1E28C
:100860001A2EAA1BBB1BFD010DC0AA1FBB1FEE1F2A
:10087000FF1FA217B307E407F50720F0A21BB30B75
:10088000E40BF50B661F771F881F991F1A9469F7F1
:1008900060957095809590959B01AC01BD01CF014D
:1008A0000895EE0FFF1F0590F491E02D0994FB01D0
:1008B000DC010D900020E9F7119701900D920020C6
:1008C000E1F70895AEE0B0E0E8E6F4E00C9411073B
:1008D0000D891E8986E08C831A8309838FEF9FE739
:1008E0009E838D83AE01475E5F4F6F89788DCE0109
:1008F00001960E9485042F813885020F131FF8018D
:1009000010822E96E4E00C942D07ABE0B0E0EBE80B
:10091000F4E00C9403077C013B018A01FC0117827F
:100920001682838181FFC8C1CE0101965C01F70167
:100930009381F30193FD859193FF81913F0188237A
:1009400009F453C1853239F493FD859193FF819168
:100950003F01853229F4B70190E00E947506E7CF88
:10096000912C212C312CFFE1F31538F08B3211F151
:1009700090F4803209F1833229F137FC3CC020ED3C
:10098000280F2A3050F536FE20C08AE0989E200DB0
:100990001124922E06C08D3291F0803371F7689445
:1009A00030F8F30193FD859193FF81913F0181110F
:1009B000DACF21C0689431F8689432F8F2CF6894A5
:1009C00033F8EFCF689434F8ECCFEAE02E9E200D98
:1009D0001124222E689435F8E4CF8E3229F436FCA7
:1009E00004C1689436F8DDCF8C3619F4689437F872
:1009F000D8CF8836B1F2982F9F7D95549330E0F090
:100A00008336A1F18337C1F1833509F063C0280132
:100A1000F2E04F0E511CF801C080D180692D70E0CA
:100A200036FC02C06FEF7FEFC6010E945F064C01EB
:100A3000689437F882010AC00C5F1F4FFFE3F98307
:100A400088248394912C6501E89437F833FE2DC0F7
:100A5000522C8114910471F5552009F468CFB70127
:100A600080E290E00E9475065A94F6CFF8018081EA
:100A700089830E5F1F4FE4CF2801F2E04F0E511C17
:100A8000F801C080D180692D70E036FC02C06FEFA4
:100A90007FEFC6010E946A064C018201D5CFB701E3
:100AA00080E290E00E9475062A942814190409F047
:100AB000B0F7CECFF60137FC859137FE81916F01FB
:100AC000B70190E00E94750651105A94F1E08F1A18
:100AD0009108BFCF843619F0893609F077C0F80144
:100AE00037FE6BC060817181828193810C5F1F4FE3
:100AF000F32DFF763F2E97FF09C090958095709556
:100B000061957F4F8F4F9F4F689437F82AE030E010
:100B1000A5010E94A506C82ECA188C2C432C36FEAF
:100B20000CC0E89440F8C91440F434FE05C032FC0F
:100B300003C0F32DFE7E4F2E892C44FE95C0FE018E
:100B4000EC0DF11D8081803309F087C0242D297EB2
:100B5000422E842D8870582E43FC95C040FE8FC0D5
:100B60009C2C821418F42C0C922C981844FE91C0E2
:100B7000B70180E390E00E94750642FE09C088E755
:100B800090E041FE02C088E590E0B7010E94750642
:100B9000C91408F48AC0CA94D12C9FEFC91AD90A83
:100BA000CA0CDB1CF60182916F01B70190E00E9434
:100BB0007506AC14BD04B1F74FCF60817181072E6B
:100BC000000C880B990B0E5F1F4F92CFD32CE8942B
:100BD000D4F82AE030E0853739F1232D297FD22E51
:100BE0008F3601F148F48835A9F0F70186819781A5
:100BF0002B96E2E10C941F07803749F08837A9F75C
:100C0000D4FE02C06894D2F820E130E00DC06894B0
:100C1000D4F8F6CF34FE03C0822F8660D82E20E1B0
:100C200032E002C028E030E0F801D7FE0FC060815A
:100C30007181828193810C5F1F4FA5010E94A506DF
:100C4000C82ECA183D2CE89437F867CF60817181AF
:100C500090E080E00E5F1F4FF0CF42FC02C0839413
:100C600078CF8394839475CF842D867809F471CFDF
:100C7000F6CFB70180E290E00E947506839482145B
:100C8000C0F3512C73CF522C5818821408F46ECF35
:100C9000F8CF842D867809F47BCF8BE241FE80E289
:100CA00047FC8DE2B70190E071CFB70180E390E09F
:100CB0000E9475069A946CCF8FEF9FEF99CFFC013D
:100CC0000590615070400110D8F7809590958E0F77
:100CD0009F1F0895FC016150704001900110D8F7EA
:100CE000809590958E0F9F1F08950F931F93CF931C
:100CF000DF93182F092FEB018B8181FD09C01FEFB6
:100D00000FEF812F902FDF91CF911F910F910895B9
:100D100082FF14C02E813F818C819D812817390765
:100D20003CF4E881F981CF0101969983888310838F
:100D30008E819F8101969F838E83E3CFE885F9851D
:100D4000812F0995892BA1F3DACFFA01AA27283040
:100D500051F1203181F1E8946F936E7F6E5F7F4F88
:100D60008F4F9F4FAF4FB1E03ED0B4E03CD0670F04
:100D7000781F891F9A1FA11D680F791F8A1F911D57
:100D8000A11D6A0F711D811D911DA11D20D009F4A7
:100D900068943F912AE0269F11243019305D3193E9
:100DA000DEF6CF010895462F4770405D4193B3E0D2
:100DB0000FD0C9F7F6CF462F4F70405D4A3318F079
:100DC000495D31FD4052419302D0A9F7EACFB4E02A
:100DD000A6959795879577956795BA95C9F70097E2
:100DE0006105710508959B01AC010A2E0694579583
:100DF000479537952795BA95C9F7620F731F841FDA
:100E0000951FA01D08952F923F924F925F926F926F
:100E10007F928F929F92AF92BF92CF92DF92EF928A
:100E2000FF920F931F93CF93DF93CDB7DEB7CA1B0B
:100E3000DB0B0FB6F894DEBF0FBECDBF09942A8836
:100E4000398848885F846E847D848C849B84AA84DE
:100E5000B984C884DF80EE80FD800C811B81AA816B
:100E6000B981CE0FD11D0FB6F894DEBF0FBECDBF36
:080E7000ED010895F894FFCF95
:100E780000000000000000001038381010001000BA
:100E88006C6C48000000000000287C28287C2800A2
:100E9800203840300870100064640810204C4C0062
:100EA800205050205448340030302000000000000A
:100EB80010202020202010002010101010102000DA
:100EC8000028387C382800000010107C1010000022
:100ED80000000000003030200000007C000000000E
:100EE800000000000030300000040810204000001E
:100EF80038444C5464443800103010101010380036
:100F08003844041820407C0038440438044438002D
:100F1800081828487C0808007C40407804443800B9
:100F280018204078444438007C0408102020200011
:100F380038444438444438003844443C04083000B9
:100F480000003030003030000000303000303020F9
:100F5800081020402010080000007C00007C0000E1
:100F6800201008040810200038440418100010004D
:100F780038445C545C403800384444447C44440061
:100F88007844447844447800384440404044380029
:100F980078444444444478007C40407840407C0095
:100FA8007C404078404040003844405C44443C0029
:100FB8004444447C44444400381010101010380055
:100FC8000404040444443800444850605048440031
:100FD8004040404040407C00446C544444444400F9
:100FE8004464544C44444400384444444444380021
:100FF80078444478404040003844444454483400DD
:10100800784444784844440038444038044438001C
:101018007C1010101010100044444444444438001C
:10102800444444444428100044445454545428002C
:101038004444281028444400444444281010100014
:1010480078081020404078003820202020203800E0
:101058000040201008040000380808080808380074
:10106800102844000000000000000000000000FC00
:101078003030100000000000000038043C443C0000
:1010880040407844444478000000384440443800E4
:1010980004043C4444443C00000038447840380090
:1010A800182020782020200000003C44443C0438CC
:1010B80040407048484848001000101010101800B0
:1010C8000800180808084830404048506050480058
:1010D80010101010101018000000685454444400F8
:1010E800000070484848480000003844444438002C
:1010F800000078444444784000003C4444443C04A4
:1011080000005824202070000000384038043800BF
:10111800002078202028100000004848485828005F
:10112800000044444428100000004444547C280033
:1011380000004848304848000000484848381060D7
:10114800000078083040780018202060202018001F
:1011580010101000101010003008080C080830009B
:1011680028500000000000002A20002825642C20B8
:10117800253264290020200031323A33340000003F
:101188000000A601E4024701860119013301250187
:041198000D0A00003C
:00000001FF
