:100000000C9435000C945D000C945D000C945D0024
:100010000C945D000C945D000C945D000C945D00EC
:100020000C945D000C945D000C945D000C945D00DC
:100030000C945D000C945D000C945D000C945D00CC
:100040000C9451030C945D000C94CC010C94FE01B3
:100050000C945D000C945D000C945D000C945D00AC
:100060000C945D000C945D002E0211241FBECFEF96
:10007000D8E0DEBFCDBF14E0A0E0B1E0EEEBF8E0E9
:1000800002C005900D92AC30B107D9F724E0ACE086
:10009000B4E001C01D92A23BB207E1F710E0C5E356
:1000A000D0E004C02197FE010E945704C433D10759
:1000B000C9F70E9442030C945D040C94000026E0F2
:1000C00040E855E260E070E08CE094E00C946A0156
:1000D000CF93DF93C0E0D1E0688170E04AE050E068
:1000E0008CE094E00E943A0368EF73E08CE094E0C7
:1000F0000E949702698170E04AE050E08CE094E051
:100100000E943A0368EF73E08CE094E00E9497024B
:1001100068EE73E080E090E0DF91CF910C94C00333
:10012000FC01918D228D892F90E0805C9F4F821B76
:1001300091098F7399270895FC01918D828D9817ED
:1001400031F0828DE80FF11D858D90E008958FEFDD
:100150009FEF0895FC01918D828D981761F0A28D1B
:10016000AE0FBF2FB11D5D968C91928D9F5F9F73D7
:10017000928F90E008958FEF9FEF0895FC01538DCB
:10018000448D252F30E0842F90E0821B930B541771
:1001900010F0CF9608950197089584E292E0892B9C
:1001A00049F080E090E0892B29F00E94240281111F
:1001B0000C9400000895FC01A48DA80FB92FB11D67
:1001C000A35ABF4F2C91848D90E001968F7399278D
:1001D000848FA689B7892C93A089B1898C9183706B
:1001E00080648C93938D848D981306C00288F38964
:1001F000E02D80818F7D80830895CF93DF93EC0184
:10020000888D8823B9F0AA89BB89E889F9898C91FE
:1002100085FD03C0808186FD0DC00FB607FCF7CFBA
:100220008C9185FFF2CF808185FFEDCFCE010E94BA
:10023000DB00E9CFDF91CF910895EF92FF920F930A
:100240001F93CF93DF93EC0181E0888F9B8D8C8D82
:1002500098131AC0E889F989808185FF15C09FB776
:10026000F894EE89FF896083E889F9898081837039
:10027000806480839FBF81E090E0DF91CF911F91E8
:100280000F91FF90EF900895F62E0B8D10E00F5F09
:100290001F4F0F731127E02E8C8D8E110CC00FB6DF
:1002A00007FCFACFE889F989808185FFF5CFCE0177
:1002B0000E94DB00F1CFEB8DEC0FFD2FF11DE35A17
:1002C000FF4FF0829FB7F8940B8FEA89FB898081FA
:1002D0008062CFCFCF92DF92EF92FF921F93CF93A6
:1002E000DF93EC016A017B01122FE889F98982E032
:1002F0008083C11481EED806E104F104A1F060E02E
:1003000079E08DE390E0A70196010E943504215029
:10031000310941095109569547953795279521157A
:1003200080E1380798F0E889F989108260E874E87C
:100330008EE190E0A70196010E9435042150310919
:10034000410951095695479537952795EC85FD85C7
:100350003083EE85FF852083188EEC89FD8910831C
:10036000EA89FB89808180618083EA89FB898081B9
:1003700088608083EA89FB89808180688083EA893C
:10038000FB8980818F7D8083DF91CF911F91FF90CA
:10039000EF90DF90CF9008951F920F920FB60F92BB
:1003A00011242F938F939F93EF93FF93E0911C045D
:1003B000F0911D048081E0912204F091230482FDDC
:1003C0001BC09081809125048F5F8F73209126043C
:1003D000821741F0E0912504F0E0E45FFB4F958F38
:1003E00080932504FF91EF919F918F912F910F9012
:1003F0000FBE0F901F9018958081F4CF1F920F921F
:100400000FB60F9211242F933F934F935F936F93E7
:100410007F938F939F93AF93BF93EF93FF938CE062
:1004200094E00E94DB00FF91EF91BF91AF919F910B
:100430008F917F916F915F914F913F912F910F908D
:100440000FBE0F901F9018958CE094E00E949000D2
:1004500021E0892B09F420E0822F0895ECE0F4E0FC
:100460001382128288EE93E0A0E0B0E0848395834B
:10047000A683B7838EEF93E09183808385EC90E031
:100480009587848784EC90E09787868780EC90E05E
:10049000918B808B81EC90E0938B828B82EC90E04F
:1004A000958B848B86EC90E0978B868B118E128EC9
:1004B000138E148E0895AF92BF92CF92DF92EF9277
:1004C000FF920F931F93CF93DF936C017B018B01FE
:1004D000040F151FEB015E01AE18BF08C017D1074E
:1004E00059F06991D601ED91FC910190F081E02DD8
:1004F000C6010995892B79F7C501DF91CF911F912D
:100500000F91FF90EF90DF90CF90BF90AF90089544
:10051000FB0101900020E9F73197AF01461B570B13
:10052000DC01ED91FC910280F381E02D09946115CD
:10053000710511F00C94880290E080E00895DC01D0
:10054000ED91FC910190F081E02D09948F929F92A2
:10055000AF92BF92EF92FF920F931F93CF93DF93CF
:10056000CDB7DEB7A1970FB6F894DEBF0FBECDBFF3
:100570007C01FA01CB0119A2223008F42AE08E0195
:100580000F5D1F4F822E912CB12CA12CBF01A50114
:1005900094010E943504F901CA016A300CF5605DCE
:1005A000D8016E938D01232B242B252B79F790E016
:1005B00080E0109721F0BD01C7010E948802A1963A
:1005C0000FB6F894DEBF0FBECDBFDF91CF911F9164
:1005D0000F91FF90EF90BF90AF909F908F900895F4
:1005E000695CDECFCF92DF92EF92FF920F931F9361
:1005F000CF93DF932115310581F4DC01ED91FC915E
:100600000190F081E02D642FDF91CF911F910F9128
:10061000FF90EF90DF90CF9009942A30310501F5DB
:100620002AE077FF1DC06A017B01EC016DE20E94A8
:100630009F028C0144275527BA014C195D096E09A8
:100640007F092AE0CE010E94A602800F911FDF9150
:10065000CF911F910F91FF90EF90DF90CF90089571
:10066000DF91CF911F910F91FF90EF90DF90CF908E
:100670000C94A6029A01AB01770F660B770B0C94D2
:10068000F20208950E94F9030E9441030E945F0054
:10069000CDECD0E00E9468002097E1F30E94CD00ED
:1006A000F9CF1F920F920FB60F9211242F933F9301
:1006B0008F939F93AF93BF938091AA049091AB04C3
:1006C000A091AC04B091AD043091A90423E0230FB4
:1006D0002D3758F50196A11DB11D2093A9048093D3
:1006E000AA049093AB04A093AC04B093AD048091A2
:1006F000AE049091AF04A091B004B091B104019602
:10070000A11DB11D8093AE049093AF04A093B004DB
:10071000B093B104BF91AF919F918F913F912F9171
:100720000F900FBE0F901F90189526E8230F02968A
:10073000A11DB11DD2CF3FB7F8948091AE04909126
:10074000AF04A091B004B091B10426B5A89B05C038
:100750002F3F19F00196A11DB11D3FBFBA2FA92F40
:10076000982F8827BC01CD01620F711D811D911D3D
:1007700042E0660F771F881F991F4A95D1F70895A9
:100780008F929F92AF92BF92CF92DF92EF92FF92A1
:100790006B017C010E949B034B015C01C114D104DD
:1007A000E104F104E9F00E9434040E949B036819FB
:1007B00079098A099B09683E73408105910570F3A8
:1007C00021E0C21AD108E108F10888EE880E83E022
:1007D000981EA11CB11CC114D104E104F10429F735
:1007E000FF90EF90DF90CF90BF90AF909F908F9051
:1007F0000895789484B5826084BD84B5816084BD99
:1008000085B5826085BD85B5816085BDEEE6F0E089
:10081000808181608083E1E8F0E0108280818260E5
:100820008083808181608083E0E8F0E08081816066
:100830008083E1EBF0E0808184608083E0EBF0E096
:10084000808181608083EAE7F0E08081846080833A
:1008500080818260808380818160808380818068E4
:1008600080831092C10008950895A1E21A2EAA1B58
:10087000BB1BFD010DC0AA1FBB1FEE1FFF1FA21750
:10088000B307E407F50720F0A21BB30BE40BF50B4D
:10089000661F771F881F991F1A9469F760957095D6
:1008A000809590959B01AC01BD01CF010895EE0F9D
:0E08B000FF1F0590F491E02D0994F894FFCFFE
:1008BE00000000000000000010383810100010007A
:1008CE006C6C48000000000000287C28287C280062
:1008DE00203840300870100064640810204C4C0022
:1008EE0020505020544834003030200000000000CA
:1008FE00102020202020100020101010101020009A
:10090E000028387C382800000010107C10100000E1
:10091E0000000000003030200000007C00000000CD
:10092E0000000000003030000004081020400000DD
:10093E0038444C54644438001030101010103800F5
:10094E003844041820407C003844043804443800ED
:10095E00081828487C0808007C4040780444380079
:10096E0018204078444438007C04081020202000D1
:10097E0038444438444438003844443C0408300079
:10098E0000003030003030000000303000303020B9
:10099E00081020402010080000007C00007C0000A1
:1009AE00201008040810200038440418100010000D
:1009BE0038445C545C403800384444447C44440021
:1009CE0078444478444478003844404040443800E9
:1009DE0078444444444478007C40407840407C0055
:1009EE007C404078404040003844405C44443C00E9
:1009FE004444447C44444400381010101010380015
:100A0E0004040404444438004448506050484400F0
:100A1E004040404040407C00446C544444444400B8
:100A2E004464544C444444003844444444443800E0
:100A3E00784444784040400038444444544834009C
:100A4E0078444478484444003844403804443800DC
:100A5E007C101010101010004444444444443800DC
:100A6E0044444444442810004444545454542800EC
:100A7E0044442810284444004444442810101000D4
:100A8E0078081020404078003820202020203800A0
:100A9E000040201008040000380808080808380034
:100AAE00102844000000000000000000000000FCC0
:100ABE003030100000000000000038043C443C00C0
:100ACE0040407844444478000000384440443800A4
:100ADE0004043C4444443C00000038447840380050
:100AEE00182020782020200000003C44443C04388C
:100AFE004040704848484800100010101010180070
:100B0E000800180808084830404048506050480017
:100B1E0010101010101018000000685454444400B7
:100B2E0000007048484848000000384444443800EB
:100B3E00000078444444784000003C4444443C0463
:100B4E00000058242020700000003840380438007F
:100B5E00002078202028100000004848485828001F
:100B6E00000044444428100000004444547C2800F3
:100B7E000000484830484800000048484838106097
:100B8E0000007808304078001820206020201800DF
:100B9E0010101000101010003008080C080830005B
:100BAE0028500000000000002000000000001D0181
:0C0BBE005B02BE00FD009000AA009C003D
:00000001FF
